{
  "contractName": "File",
  "abi": [
    {
      "inputs": [],
      "payable": false,
      "stateMutability": "nonpayable",
      "type": "constructor",
      "signature": "constructor"
    },
    {
      "constant": false,
      "inputs": [
        {
          "name": "_type",
          "type": "string"
        },
        {
          "name": "_hash",
          "type": "string"
        },
        {
          "name": "_ind",
          "type": "uint256"
        }
      ],
      "name": "setInfo",
      "outputs": [],
      "payable": false,
      "stateMutability": "nonpayable",
      "type": "function",
      "signature": "0xb9e2b544"
    },
    {
      "constant": true,
      "inputs": [
        {
          "name": "_ind",
          "type": "uint256"
        }
      ],
      "name": "getInfo",
      "outputs": [
        {
          "name": "",
          "type": "string"
        },
        {
          "name": "",
          "type": "string"
        },
        {
          "name": "",
          "type": "string"
        },
        {
          "name": "",
          "type": "string"
        },
        {
          "name": "",
          "type": "string"
        }
      ],
      "payable": false,
      "stateMutability": "view",
      "type": "function",
      "signature": "0x1a3cd59a"
    }
  ],
  "bytecode": "0x60806040523480156200001157600080fd5b5060008090505b600a811015620002135760a0604051908101604052806040805190810160405280600481526020017f6e756c6c0000000000000000000000000000000000000000000000000000000081525081526020016040805190810160405280600481526020017f6e756c6c0000000000000000000000000000000000000000000000000000000081525081526020016040805190810160405280600481526020017f6e756c6c0000000000000000000000000000000000000000000000000000000081525081526020016040805190810160405280600481526020017f6e756c6c0000000000000000000000000000000000000000000000000000000081525081526020016040805190810160405280600481526020017f6e756c6c00000000000000000000000000000000000000000000000000000000815250815250600082600a811015156200016357fe5b600502016000820151816000019080519060200190620001859291906200021a565b506020820151816001019080519060200190620001a49291906200021a565b506040820151816002019080519060200190620001c39291906200021a565b506060820151816003019080519060200190620001e29291906200021a565b506080820151816004019080519060200190620002019291906200021a565b50905050808060010191505062000018565b50620002c9565b828054600181600116156101000203166002900490600052602060002090601f016020900481019282601f106200025d57805160ff19168380011785556200028e565b828001600101855582156200028e579182015b828111156200028d57825182559160200191906001019062000270565b5b5090506200029d9190620002a1565b5090565b620002c691905b80821115620002c2576000816000905550600101620002a8565b5090565b90565b610aa480620002d96000396000f3fe60806040526004361061004c576000357c0100000000000000000000000000000000000000000000000000000000900463ffffffff1680631a3cd59a14610051578063b9e2b544146102b5575b600080fd5b34801561005d57600080fd5b5061008a6004803603602081101561007457600080fd5b810190808035906020019092919050505061041e565b60405180806020018060200180602001806020018060200186810386528b818151815260200191508051906020019080838360005b838110156100da5780820151818401526020810190506100bf565b50505050905090810190601f1680156101075780820380516001836020036101000a031916815260200191505b5086810385528a818151815260200191508051906020019080838360005b83811015610140578082015181840152602081019050610125565b50505050905090810190601f16801561016d5780820380516001836020036101000a031916815260200191505b50868103845289818151815260200191508051906020019080838360005b838110156101a657808201518184015260208101905061018b565b50505050905090810190601f1680156101d35780820380516001836020036101000a031916815260200191505b50868103835288818151815260200191508051906020019080838360005b8381101561020c5780820151818401526020810190506101f1565b50505050905090810190601f1680156102395780820380516001836020036101000a031916815260200191505b50868103825287818151815260200191508051906020019080838360005b83811015610272578082015181840152602081019050610257565b50505050905090810190601f16801561029f5780820380516001836020036101000a031916815260200191505b509a505050505050505050505060405180910390f35b3480156102c157600080fd5b5061041c600480360360608110156102d857600080fd5b81019080803590602001906401000000008111156102f557600080fd5b82018360208201111561030757600080fd5b8035906020019184600183028401116401000000008311171561032957600080fd5b91908080601f016020809104026020016040519081016040528093929190818152602001838380828437600081840152601f19601f8201169050808301925050505050505091929192908035906020019064010000000081111561038c57600080fd5b82018360208201111561039e57600080fd5b803590602001918460018302840111640100000000831117156103c057600080fd5b91908080601f016020809104026020016040519081016040528093929190818152602001838380828437600081840152601f19601f820116905080830192505050505050509192919290803590602001909291905050506107b3565b005b6060806060806060600086600a8110151561043557fe5b60050201600001600087600a8110151561044b57fe5b60050201600101600088600a8110151561046157fe5b60050201600201600089600a8110151561047757fe5b6005020160030160008a600a8110151561048d57fe5b60050201600401848054600181600116156101000203166002900480601f0160208091040260200160405190810160405280929190818152602001828054600181600116156101000203166002900480156105295780601f106104fe57610100808354040283529160200191610529565b820191906000526020600020905b81548152906001019060200180831161050c57829003601f168201915b50505050509450838054600181600116156101000203166002900480601f0160208091040260200160405190810160405280929190818152602001828054600181600116156101000203166002900480156105c55780601f1061059a576101008083540402835291602001916105c5565b820191906000526020600020905b8154815290600101906020018083116105a857829003601f168201915b50505050509350828054600181600116156101000203166002900480601f0160208091040260200160405190810160405280929190818152602001828054600181600116156101000203166002900480156106615780601f1061063657610100808354040283529160200191610661565b820191906000526020600020905b81548152906001019060200180831161064457829003601f168201915b50505050509250818054600181600116156101000203166002900480601f0160208091040260200160405190810160405280929190818152602001828054600181600116156101000203166002900480156106fd5780601f106106d2576101008083540402835291602001916106fd565b820191906000526020600020905b8154815290600101906020018083116106e057829003601f168201915b50505050509150808054600181600116156101000203166002900480601f0160208091040260200160405190810160405280929190818152602001828054600181600116156101000203166002900480156107995780601f1061076e57610100808354040283529160200191610799565b820191906000526020600020905b81548152906001019060200180831161077c57829003601f168201915b505050505090509450945094509450945091939590929450565b6040805190810160405280600681526020017f6161646861720000000000000000000000000000000000000000000000000000815250805190602001208380519060200120141561082e5781600082600a8110151561080e57fe5b6005020160000190805190602001906108289291906109d3565b506109ce565b6040805190810160405280600581526020017f647269766500000000000000000000000000000000000000000000000000000081525080519060200120838051906020012014156108a95781600082600a8110151561088957fe5b6005020160010190805190602001906108a39291906109d3565b506109cd565b6040805190810160405280600381526020017f70616e000000000000000000000000000000000000000000000000000000000081525080519060200120838051906020012014156109245781600082600a8110151561090457fe5b60050201600201908051906020019061091e9291906109d3565b506109cc565b6040805190810160405280600581526020017f74656e7468000000000000000000000000000000000000000000000000000000815250805190602001208380519060200120141561099f5781600082600a8110151561097f57fe5b6005020160030190805190602001906109999291906109d3565b506109cb565b81600082600a811015156109af57fe5b6005020160040190805190602001906109c99291906109d3565b505b5b5b5b505050565b828054600181600116156101000203166002900490600052602060002090601f016020900481019282601f10610a1457805160ff1916838001178555610a42565b82800160010185558215610a42579182015b82811115610a41578251825591602001919060010190610a26565b5b509050610a4f9190610a53565b5090565b610a7591905b80821115610a71576000816000905550600101610a59565b5090565b9056fea165627a7a7230582073ce29b763e1f4a3adc6c3112e6b8d2c2af6a8637148e1913bc550818114e9a90029",
  "source": "pragma solidity 0.5.0;\r\n\r\ncontract File{\r\n  struct Info{\r\n    string aadhar;\r\n    string drive;\r\n    string pan;\r\n    string tenth;\r\n    string twelth;\r\n  }\r\n\r\n    Info[10] inf;\r\n    constructor() public{\r\n       for(uint i = 0; i<10; i++){\r\n       inf[i] = Info(\"null\", \"null\", \"null\", \"null\", \"null\");\r\n    }\r\n\r\n    }\r\n\r\n\r\n\r\n    function setInfo(string memory _type, string memory _hash, uint _ind) public {\r\n      if(keccak256(bytes(_type)) == keccak256(bytes(\"aadhar\")))inf[_ind].aadhar = _hash;\r\n      else if(keccak256(bytes(_type)) == keccak256(bytes(\"drive\")))inf[_ind].drive = _hash;\r\n      else if(keccak256(bytes(_type)) == keccak256(bytes(\"pan\")))inf[_ind].pan = _hash;\r\n      else if(keccak256(bytes(_type)) == keccak256(bytes(\"tenth\")))inf[_ind].tenth = _hash;\r\n      else inf[_ind].twelth = _hash;\r\n    }\r\n\r\n    function getInfo(uint _ind) public view returns(string memory, string memory, string memory, string memory, string memory){\r\n      return (inf[_ind].aadhar, inf[_ind].drive, inf[_ind].pan, inf[_ind].tenth, inf[_ind].twelth);\r\n    }\r\n\r\n}",
  "sourcePath": "C:/Users/ASUS/OneDrive/Desktop/PISB_SCALED/src/contracts/File.sol",
  "compiler": {
    "name": "solc",
    "version": "0.5.0+commit.1d4f565a.Emscripten.clang"
  },
  "schemaVersion": "3.0.3",
  "updatedAt": "2022-04-18T05:43:24.148Z",
  "devdoc": {
    "methods": {}
  },
  "userdoc": {
    "methods": {}
  }
}